:020000040000FA
:2000000000500020E9000000E1000000C9000000E5000000E5000000E5000000000000002E
:20002000000000000000000000000000E5000000E500000000000000E5000000E50000002C
:2000400001220000E50000003D280000E500000089180000F51C0000E5000000E5000000D2
:20006000E500000065280000E5000000E5000000E5000000E5000000E5000000E5000000B0
:20008000E5000000E5000000E5000000E5000000E5000000E5000000E5000000E500000038
:2000A000E5000000E5000000E5000000E5000000E5000000E5000000E5000000E500000018
:2000C000E5000000AD2A0000044B1A68B2F5806F03D01B689B0500D4FEE7704728ED00E0A2
:2000E000FEE700BFFEE700BF08B50AF06FF9104A104B9A420DD2D0430F4918440B4620F001
:2001000003000430084453F8041B834242F8041BF9D10A480A494FF000028842B8BF40F8AB
:20012000042BFADB00F074F8FFF7CEFF08BD00BF00000020210300204CE400002803002039
:20014000962E002010B5038804465BB1892B05D1134803F093FB98B9012010BD00230380CA
:20016000032010BD0F4801F02BFC80210C4803F067FB022000F032FA89232380012010BD5B
:20018000094801F01DFC012000F028FA022000F025FA034803F05EFB89232380012010BDCC
:2001A00050030020E8D60000F8D60000F0B5002706463C463D4683B0304600F0FBF9019500
:2001C000019B9C4206DD00BF019B01330193019B9C42F8DC304600F0F7F90195019BC4F510
:2001E000C874A34206DA00BF019B01330193019BA342F8DB0137B7F5487F06D0B7F5C87F13
:20020000CCBFC7F548743C46D6E703B0F0BD00BF2DE9F041744C86B02368012173485B6815
:2002200098472368012211461B687048984709F04DFF01F0FDFF01F095FF00F0E9F901F046
:20024000CDFF00F0ADF96A496A486B4A012303600B6018461368FFF7A9FF09F03BFF01F095
:2002600087FA01F0EDF903F0B5FC01F051FB03F001FC41F2342002F02FFB01F007FD03F0CA
:200280004BFD5E4801F09CFB4BF2AC7200215C4802F052FC5B4801F093FB09F08BFE5A4C3E
:2002A0005A4D10F0040F14BF27462F4609F08AFE01280CBF26462E4609F07CFE10F0020FF6
:2002C00014BFA046A84609F075FE10F0080F08BF2C4632464346009439464D4802F02CFCF8
:2002E00000214C4803F0A2FB03F05AF903F0F0F90220FFF75BFF484802F01EFC474B484C63
:20030000186801F05DFB474802F016FC464B186801F056FB454802F00FFC2168444802F09D
:200320000BFCE469A04720B1A0470146414802F003FC0A2001F03CFB00250BF0E1F804A812
:2003400008213D4E3D4F039501F072FB9DF817309DF8164004AA03CA43EA0424D7F82C8055
:200360003060716002204AF6CD31C04721460320C04729460120C047082204A97B6B0B20A5
:200380009847BB6A03A90120984703992C4802F0D3FB2C4B21462C481C8002F0CDFB2B4BBF
:2003A000726831685A6019600BF01AFA2946284803F03CFB0220FFF7F9FE2946254803F0A1
:2003C00035FB254803F096F801F0B0FA0120FFF7EDFE03F069FB044601F0DCFA14F0FF0FE8
:2003E000F7D101F087FDF4E7D801001000400340080009400C4009402C20094020D7000007
:2004000038D7000050D7000018D700001CD7000064D70000B800002098D70000F4E200006C
:2004200088E30000A0D7000058E30000A8D70000B0D70000B4D700003C2E002074D8000038
:20044000D8D70000D8230020ECD70000182400204801002010000020E0D600002DE9F0411D
:2004600004880646772C30D07E2C27D024B1002303800320BDE8F08103F0D0FA2F4F304BF6
:20048000304D3A6818702C60002A55D02346A0462D4C04F8038093680021802098472B6865
:2004A000013357F823202B60002AF2D1DBB2274A1370772333800120BDE8F081204B1B78FB
:2004C0008B421CD00120BDE8F081DFF880801D4D98F800201E4F00233B602B60002AE8D0A3
:2004E000194CE256002A18DB2B6898F80020013393422B60F5DB3B68002BECD1D9E7114DF2
:20050000114CDFF84880124F2B683A68E15C013201F07F01E1543A60E7E7084A084952F8DE
:2005200023200978002003F01DFB0028ECD17E2333800120BDE8F0811346B8E73400002010
:20054000922E00206003002008240020E82300206403002010B40E4B1C7864B10D4A1368A2
:20056000984213D0002303E052F8041F88420BD00133A342F8D1084A0848135D63F07F03DD
:20058000135510BC03F01ABB1C46F4E70024F2E7E82300203400002008240020100000202A
:2005A00008B500F083F8024B00221A7008BD00BFE9230020034A137803431846137000F07B
:2005C0008FB800BFE9230020034A137823EA00031846137000F084B8E9230020034A1378F0
:2005E00043401846137000F07BB800BFE923002010B5064C042023685B6998472368042071
:200600005B6B98470128F9D110BD00BFB8010010F0B591B009F05AFD0746FFF7E9FF1D4B24
:200620004FF4A0601B68DB6998471B4B01211B4A196013689907FCD5194C00F0E9F901AD9A
:20064000184801F083FD0FCC0FC50FCC0FC50FCC0FC594E80700019C85E80700621C0FD0CB
:20066000114E01AD336820469B6B9847336820469B694FF40051984755F8044F631CF1D12E
:200680000CF056F80FB111B0F0BD11B0BDE8F04009F020BDB801001028200860282008406D
:2006A00004D8000020000020B4010010094B1A6802B1704710B50122074C1A6023680620B3
:2006C000DB6B984723680720DB6B9847034BC0221A6010BD68030020B4010010A020024055
:2006E000074B0849C02208701A60C20744BF402243F8102C830702D5034B80221A6070475C
:20070000A0200240EA2300209020024008B5034B1B685B689847C0F3804008BDB40100108B
:2007200028B1012806BF054BD86800207047044B1868C0F3403080F0010070476C030020E2
:20074000C020024008B100207047034B1868C0F3803080F001007047C0200240813801288A
:2007600001D9002070470D20FFF7D0BF8138012801D9002070470E20FFF7C8BF802870B50B
:2007800014460AD0812807D1E1B9BDE87040184B10461B685B6B184770BD154D1549012343
:2007A00093402A680B60936B204698472B6820460021114A1B689847E0B21049BDE870400F
:2007C00001F0F6BC0A4D0B49012393402A680B60936B204698472B6820461B68064A0021A7
:2007E00098472B682046BDE870401B6B184700BFB4010010E0200240004007201908000099
:2008000008B50D22FFF7BAFF012008BD08B50E22FFF7B4FF012008BD0D2838B50AD00E28A9
:2008200000D038BD4FF080524FF48041BDE8384001F08ABA0E4C204603F00CFA0028F0D0EB
:200840000421204603F0F2F90A4B1D68C5F3403525B900F041FFE560A06038BD00F03CFFB5
:20086000A368C31AE3600448BDE83840FFF772BE6C030020C020024048D8000030B51C4AA2
:200880001C4B106883B000244FF48015042101908DF800408DF801400DEB01001D6000F0A3
:2008A000D3F820B9144BFF201D6003B030BD0221684600F0E7F8104B1D6010B9FF2003B0E6
:2008C00030BD9DF80030EF2B03D0C22B01D02046EBE79DF80100A0F11103012B05D91438F2
:2008E00001288CBF00200120DFE70120DDE700BF68D80000A02002409020024030B5164B5F
:2009000083B002AC05224FF4801504F8042D1D6000F0DCF82046012100F096F820B910E0BA
:200920009DF80730DB0710D501210DF1070000F0A9F80028F4D1094B4FF480121A6003B029
:2009400030BD064B1D6003B030BD044B4FF4801201201A6003B030BDA020024090200240E9
:2009600030B583B0FFF7CAFF08B903B030BD0E4B02A8B9224FF4801500F8012D01211D60C4
:2009800000F062F8094B0A241D60FFF777FF631E0028EAD013F0FF04F7D1044B4FF480124D
:2009A0001A6003B030BD00BFA02002409020024010B50A2182B0124800F09AF8114B1420DC
:2009C0001B68114CDB6B9847104A4FF48013AB2102A8236000F8011D1360012100F034F822
:2009E00008B1FFF78BFF084B4FF480121A60FFF745FFA0F10100B0FA80F0400902B010BD6E
:200A000000093D00B401001090200240A020024008B5FFF7CDFFFFF7A3FFBDE8084000F0E3
:200A2000C7B800BF08B5064B02201B685B6B9847012803BF034B186800F00100002008BD91
:200A4000B801001078200840F0B583B005460C46FFF7E8FF074680B17CB1094E336815F8F1
:200A6000011B5B684FF080409847336801A9DB684FF080409847013CF0D1384603B0F0BD77
:200A8000C4010010F0B583B005460C46FFF7CAFF0746B0B1ACB10C4E09E033684FF0804065
:200AA000DB689847019B013C05F8013B09D0336800219B684FF08040984701A90028ECD1FD
:200AC0000746384603B0F0BDC401001010B582B0FFF7A8FF40B1054C236801A91B694FF048
:200AE000804098470028F7D102B010BDC4010010F0B5264D07462B6885B002205B690E46AC
:200B000098472B6802205B6B9847012804461F4BF7D11B684FF48070DB6998471C4B1D4A50
:200B20001C6013689B07FCD51B4A1C4913681C484FF0030E082523F00F030C4609681360CA
:200B4000C0F800E00023019500971A460F684FF080401449B847144B29461B6800965D6CCB
:200B600009224FF0FF334FF08040A8470F4A136843F002031360236803A91B694FF08040B2
:200B800098470028F7D105B0F0BD00BFB8010010282008602820084014000040C401001033
:200BA00020000040006CDC02B40100100400004010B5174B4FF480701B681B6A9847154BE1
:200BC0000121154A196013689B07FCD5134C082023689B6B984723684FF400519B690820EB
:200BE0009847236809209B6B984723684FF400519B690920984723680A209B6B984723682D
:200C00004FF400519B690A20BDE81040184700BFB80100102820086028200840B401001031
:200C20000120704708B501F0C5FB30B1044B5B88022B14BF0220012008BD022008BD00BFAD
:200C40002C02002010B582B001F0ECFD044601F0B1FB08B902B010BD01A9084801F0B2FBB6
:200C60000128F7D1638803F44063002BF2D1638803F44063002BF5D0ECE700BF0100010403
:200C800030B583B001F096FB184C88B900256580A37F01A95BB2C3F5FF6307339BB2134836
:200CA000238301F08FFB012809D0284603B030BD6388022B08BF0120E8D103B030BD00F0BA
:200CC00055FD6FF03F052D1A03E000F04FFDC54203D563889BB2022BF7D1608880B2A0F102
:200CE0000200B0FA80F04009E7E700BF2C02002008B5B32994BF0A46B422014602480CF015
:200D000099FB002008BD00BF9603002070B50A4D00262C6803E024682B689C420AD0237956
:200D2000032BF8D1054802F049FF24682B6801369C42F4D1304670BD880300206C00002062
:200D4000F8B5124E35682B79032B02D000242046F8BD2C89023C002C0CDD8C4205F10A0729
:200D60000EDD3957042089B20AF010FD7F2103200AF00CFD2A68002332602B712046F8BDCE
:200D8000224639460CF056FBEBE700BF9003002010B582B001F00EFBD0B10F4C6388022BF6
:200DA00016D101A90D4801F00DFB02E06388022B03D101F0FFFA0028F8D16088A0F550508E
:200DC000043880B201288CBF0020012002B010BD012002B010BD00BF2C02002001000104BE
:200DE00010B5012082B00BF0CFFC104C104B05211A68237E84F82410928803F0F80343F02A
:200E00000803204601A96283237601F0DBFA012802D0002002B010BD204601F01DFBA0F1D9
:200E20000100B0FA80F0400902B010BD740200205400002000B583B001A90A4801F0C2FA34
:200E4000012803D0002003B05DF804FB054801F003FBA0F10100B0FA80F0400903B05DF836
:200E600004FB00BF5C02002008B5FFF7E3FF012801D0002008BDFFF703FFC0B208BD00BFD4
:200E800008B5FFF7ADFF012801D0002008BDBDE80840FFF7E9BF00BF08B5FFF779FF01F0AE
:200EA000CDFB01F03FFA024B00225A8008BD00BF2C02002008B501F003FD012801D0FFF787
:200EC000EBFF012008BD00BF2DE9F84301F0F8FC012818D001F0F4F901F06CFA78B901F0E5
:200EE00069FA0446002840F0888001F0CDFA012805460BD001F0A2FB0020BDE8F883544B71
:200F00005B88022BEBD10120BDE8F88301F00EFC4FF423724F4950480CF08CFA4F4B50490C
:200F2000504F1C70504A0224DFF890E10D704F4E3C704F48032404278EF8004001F5117191
:200F40001770052506244B4A35700470196313684849002BFBD04FF00009C1F800904FF6B4
:200F6000077846F2A31C444ADFF854E1434F444E444D454C4548464BDFF848910BE00B4611
:200F800002F12400D2F820C0D2F83480976BD2F83CE0203271C803F120014945C3F800C081
:200FA00058609C60DD601E61C3F814809F61C3F81CE0E4D1374B3849384D1962384A3949FF
:200FC00039482C4C394F3A4E5D6200259F62D8621E6301202560116009F07CF9354809F06D
:200FE000DFF8224613682349002BFBD000230B6001F0B2FA01287FF47DAF002001F0B8FB1E
:201000002D48002103460E46022584245A791E7102F0FC0265F383025A71DC808C33435026
:201020008C31B1F50C7F244AF0D1C2F8A42101F05FF9FFF7D5FE012802D00020BDE8F883C7
:20104000FFF7F8FE0128F8D1BDE8F843FFF718BE2C02002060DF00001C0400219003002184
:201060007903002175030021AE030021AB030021810300211C100440ACD800003040004050
:20108000B00A3F002E1F133F4D00F1247F14071300C0002180C60021603953632010101AB8
:2010A0000010044001010E0411161216136F236E546B0070740200204C0400207703002196
:2010C00001400340A0C60021F0B583B0072875D8DFE800F0660F74740C74144C614B186099
:2010E000FFF77EFE012801D1FFF7BEFE002003B0F0BD21296BD9022003B0F0BD4FF6FF7588
:20110000594EB788AF4208BFFF2009D03246002000E0184608329488431CAC42DBB2F8D16A
:2011200056F83030504C9942E5DB23689942E2DC4FF6FF750191FFF785FDAF42019900F068
:201140008E802246002300E0034608329488581CAC42C0B2F8D156F8332006EBC3009142B2
:2011600003F1FF33BADD5A1CF5D1B9E73F4B197001F020F920B33E4B5B88022B08BF002561
:201180001ED1FFF705FE012814BF03240024FFF727FE01285AD00324002D4AD12046A6E750
:2011A00001294ED00029A6D1019101F089FB01289CD0FFF771FE0199084698E7012096E741
:2011C000FFF782FE012848D0032003B0F0BD294C4FF47A73208AE28903FB00F003FB02F23B
:2011E00000F57F40A2F55223FF30A3F69533224A03EB2043A2FB0323C3F3871399423FF4C1
:2012000075AFC82303FB01F11C4801F5522303F69533A0FB03211A4AC1F38F1102FB013397
:201220001B04A0FB0323174A9B09E181238211849EE701F045FB0128B0D0FFF72DFE204647
:2012400055E7FFF741FE0128BED14FE7FFF70CFE0128A0D1002DA1D0EBE7054691E7FF2340
:2012600079E700BF54000020CCE300001E0300202C0200205C0200201F85EB51D34D6210AD
:2012800018FCFFFF7402002089B12DE9F0430C4683B0102800F29280DFE800F0121F90905A
:2012A0009090848A399090909066696D0B00022070474C4B00201B680B6003B0BDE8F083F7
:2012C00001F078F830B1484B5888A0F10200B0FA80F0400920600020EFE7444B4FF47A722F
:2012E000198ADB8902FB01F102FB03F201F57F41A2F55223FF31A3F695333D4A03EB2143DA
:20130000A2FB0323C3F3871323600020D5E701F051F8002854D0344B5B88022B08BF4FF040
:2013200000094DD140F203470A2580264FF000086B1E13F0FF0569460BD001A8CDF80480E2
:20134000ADF8047001F03EF818B19DF802607306EED0B9F1000F39D176B216F1800F26604F
:2013600014BF00200320A8E700200860A5E721230B600020A1E74FF6FF751A4EB388AB4214
:2013800008BFFF2109D03246002100E01946083290884B1CA842DBB2F8D156F831300020ED
:2013A00023608AE7134B00201B681B680B6084E7114B002093F900300B607EE701207CE753
:2013C000FFF782FD012808D18146ABE701F078FA0128C1D0FFF760FDBEE76FF07F032360C4
:2013E00003206AE7CCE300002C0200205C0200201F85EB51540000201E03002070B582B012
:20140000044600F0D7FF38B3264B5B88022B08BF002621D12449221DA31C244C92B29BB205
:20142000100A2382E1610A704870FFF7B1FC0021084601F0D7F9204601A900F0C3FFD8B953
:201440000125002001F0E2F900236380FFF718FC4EB9284602B070BDFFF736FD01281FD0D5
:20146000012002B070BD01F02BFA0128F1D0FFF713FD284602B070BD00F08CFA638803F4C1
:20148000406333B900F02CFD638803F44063002BF8D0608880B2B0F5505518BF0125D0E714
:2014A0000646B7E72C020020940300209C02002010B50C46B32998BF2246014688BFB42269
:2014C00003480BF0B7FF2046BDE81040FFF796BF9603002030B583B000F06CFFD0B1184B5A
:2014E0005B88022B20D00025802401A9154800F069FF012803D19DF806406306F5D0B5B950
:20150000114B64B293F90000A042D4BF0020012003B030BDFFF7D8FC01280FD001F0D0F9EB
:20152000012801D0FFF7B8FC012003B030BD01F0C7F90128E4D0FFF7AFFCE1E70546D3E74A
:201540009C020020010003041E03002008B501F0B7F9012803D0BDE80840FFF7BBBF08BD08
:2015600008B500F027FF70B1084B5B88022B0AD101F0A6F9012806D0FFF7ACFF10F1FF30D9
:2015800018BF012008BD002008BD00BF2C020020F8B5184800F0DAFD08F014FD012802D0C4
:2015A00000242046F8BD144C4FF40C72204600210CF01AF840F25F31104B114D1148124A06
:2015C000124F134E2C601C6000254FF4005414825D608362C7623184D181FFF775FC01288D
:2015E0000446DDD10B4801F023F929460A4802F01DFAD6E7400000204C0400208803002091
:20160000900300202C0200205C0200207C030020740200206CD800006C000020012070476E
:2016200010B5064C042023685B699847236804205B6B98470128F9D110BD00BFB8010010A5
:20164000F8B51A4A00200021C2E90001184B04201B685B6B9847012801D0FFF7E1FF144BAE
:2016600000201B68DB699847124B0121124A196013689B07FCD5114A11491368096823F4AA
:20168000807323F001030F4C13600B6820460E49984740F221200D4D0D490E4B0427312665
:2016A000012227602E6008601A60F8BD28030020B801001028200860282008400C000140BA
:2016C000C801001000000140002100043C000140080001400400244310B40949094C0B68BC
:2016E000226808688342FAD1DB01074903EB52620023C1E9002310BCD1E90001704700BFA5
:20170000082009400C2009402803002010B50B490B4C0B68226808688342FAD1DB010949FD
:2017200003EB52620023C1E9002302F0B1F800B910BDBDE8104002F07DB800BF08200940AA
:201740000C2009402803002010B508F0BFFC034B1C6808B908F0BEFC204610BD0820094068
:20176000704700BF0146012000F052B808F010BC2DE9F04108F0AAFC1D4E1E4B1E4F32680D
:201780000124002580464FF480314FF480703D601C60186019601368284623219847336861
:2017A00020461B6824219847336825211B6802209847124A1249136843F4E02313600D606B
:2017C00008F0E6FB0F4B1049104A1B6800F50070086014603C601B6914209847B8F1000F74
:2017E00001D0BDE8F081BDE8F04108F073BC00BF8401001004200940000024430020094074
:2018000008200940B00100101C200940A0022443431E012B10B419D9042801D010BC704745
:2018200000231A4610F004001CBF0E4C216013B10D4B0121196012B10C4B01221A600028D5
:20184000ECD00B4B01221A6010BC704710F0010302D0084A0123116010F00202E2D0064C91
:201860002160DFE72020094080022443A0022443C0022443182009401C200940014B1868AB
:20188000704700BF7C06002008B5FFF76FFF184B1860FFF73BFF174B1B686BB9164B1B6817
:2018A000E3B9164B1B6833B11549164B00204FF4803208601A6008BD124B4FF480721A603D
:2018C00008F066FB00F205200F4B20F4FF7020F001001860084B1B68002BE2D00B49094BD7
:2018E0000020012208601A6002F08CF9D9E700BF7C060020A000244380002443C000244316
:20190000C0022443042009401C2009408002244303490448044B012208601A60704700BF61
:2019200000000840FFFF0F00000C0840F8B508F0CDFB124AB0FA80F01368012B0BD0104C3D
:20194000104D1149114A0123400925600B601360C3070FD4F8BD0E4F094D0A4E0A4C0B498E
:20196000400940F0020017602E6023600B601360C307EFD5BDE8F84008F0ACBB000C084068
:2019800000000840FFFF0F000C0008400401004351E5CC1A03490448044B012208601A604E
:2019A000704700BF00000840FFFF0F000C00084010B50446C0B200F07DF9204610BD00BF2F
:2019C00070B506460024451E04E015F8010F00F071F9013430460BF055FEA042F5D80A20E2
:2019E00000F068F900F07AF90128FBD0204670BD70B50446B0B10078C0B1A9B100256618F6
:201A000004E014F8010F38B1B44205D000F052F9631C05F10105F4D100F060F90128FBD05A
:201A2000284670BD0546F7E70D46F5E70546F3E710B40B4B0B4C13F8012FFF2A0DD1A342F6
:201A4000F9D1094A39B11144013801390B78914200F8013FF9D110BC7047044AF2E700BFF6
:201A6000C7FF0100CFFF0100F0120050C8FF010038B50C4D02202B685B6998472B68022063
:201A80005B6B984701280446064BF7D11B684FF40070DB699847044B044A1C6013689B0786
:201AA000FCD538BDB801001028200860282008402DE9F04340F2F275DFF8DC8083B0FFF719
:201AC000D7FFD8F800302A4EDB682A4898473368294C5B69152098472368DFF8C090274F14
:201AE00023F4FE63D9F8002023F0020323603D60D36B032098472249D9F80030082012223D
:201B000008600092D3F840900322132302211948C847D8F800206023D2F8048019494FF4DC
:201B2000E1321448C04740F2011240F2013E1649164B142008601968154841F01001196084
:201B400003681449002B0CBF134673460B603D60036853B12368326843F050032360136994
:201B6000152003B0BDE8F043184703B0BDE8F083B00100100010004038100040441000404E
:201B800090200240006CDC02341000402C1000408006002030100040D0010010B40100103D
:201BA00008B5064B02201B685B6B9847012803BF034B186800F00100002008BDB801001075
:201BC0006C20084038B50446FFF7EAFF18B1254A13681907FCD4032C03D0234B1B6803B1D1
:201BE00038BDFFF7DDFFE0B9204D4FF400702B681B6A9847032C2AD01D4B01211D4A1960DB
:201C000013689B07FCD5032000F0BCFA022000F0B9FA132000F0B6FABDE83840122000F036
:201C2000B1BA154B15481B68DB689847144B15201B685B69984740F2F270124A1249136857
:201C400023F4FE6323F0020313600860CCE72B684FF400709B6A98472B684FF400701B6B70
:201C60009847C9E71810004080060020B80100102820086028200840D0010010001000408D
:201C8000B0010010381000404410004010B508F01DFA0446054800F059FA054B00221A60CD
:201CA00004B110BDBDE8104008F014BA580000208006002010B50446FFF772FF08B9FFF79C
:201CC000F7FE044B2146BDE810401B680248DB69184700BFD00100100010004008B5FFF751
:201CE0005FFF18B1024B1868C0F3C00008BD00BF1810004038B5FFF7BBFE40F2F2710C4B09
:201D00000C4A1B68116013F0500F10D00A4C0B4D05E02B681B699847094B1B6823B9236870
:201D20000848DB06F5D538BDC0B29847F7E738BD401000404410004018100040D001001022
:201D400080060020001000402DE9F04740234FF0000882B00F461646CDF80080019305468F
:201D600008F0B4F9494A4A4BC2F80080444601204FF480714FF48032DFF8588118601960E7
:201D80001A60D8F8003020463F211B6801349847042CF6D1DFF83C810024D8F80030204657
:201DA0003F219B6801349847032CF6D1394B1B68FFF7F0FD384801F0C5FF044630B1A36861
:201DC000032003B198472468002CF8D16B1C0CD0324BAA0013430021314A1960136846F026
:201DE00000523A4328461B6898472E4EDFF8E89000243368C9F800409B6907209847684601
:201E00000AF0DCFC00F08EFA00F03CFA264827490368326823F0030303600B68244D23F0FC
:201E20000F030B609369382098472C6001200AF0E5FCDFF8A8A01F481F4A4FF001081F49CB
:201E40001F4B2C60134FCAF80040C0F8008014601C4A0C60C9F800401C603B681A491368AC
:201E6000096823F0030313604B68184803219847174A33682C60CAF80040C2F800809B6B85
:201E80003A68984702B0BDE8F08700BF00002443042009402C20094084060020001A444281
:201EA000B4010010B801001000100940081009404010094088010443400122434401224321
:201EC0000800094024220840D80100100040034018100940840100100C4009402004224393
:201EE000034A136823F00403136030BF704700BF10ED00E070B508F0E9F801F029FE18B16C
:201F0000BDE8704008F0E6B8804801F01BFF0225044648B1636823B19847A84228BF2846DC
:201F2000C5B22468002CF5D1FFF720FC784B04461B68002B40F0898001F0AAFC002840F0B7
:201F4000B2800346012D00F09380022DD8D1002840F0C780611E2846FFF75AFC6B4801F081
:201F6000F1FE0625044600287BD0A368022003B198472369246825EA0305002CF5D1FFF7B3
:201F800009FD6B0705F006046ED4002C40F0A38000F0C8F900200AF031FC5E495E4A0B684F
:201FA0005E4823F003030B601368016843F00F0313608B6939209847594A5A490023136053
:201FC000184613600B6008F05BFD062C00F08E80554C564D564E2B682368326823F003038C
:201FE000236053680321534898474C4B1B689B6B98472B6808F094FE4F4A33680021116023
:202000004C485B680121984723684C4A012143F00303236011602B6808F0BAFE0AF0BAFB06
:20202000FFF774FBFFF7B6FC384801F08BFE044628B1E36803B198472468002CF9D108F01E
:2020400049F8BDE8704008F045B83D4B1B681B1A022B3BD4A3F28F23002BBFF66DAF012312
:2020600035E0FFF797FC0624344B00221A608CE7002842D06FF00702121BDA423AD404F518
:202080008031CA1A11EA220138BF19460220FFF7BFFB2C4A136823F00403136030BFBDE853
:2020A000704008F017B801F0FBFB0646FFF714FB361A002E7FF724AFFFF7E0FB224A00EB82
:2020C0004623121BDA421BD401203BE700239D4228BF1D4630E7114B20461B689B69984791
:2020E00056E719462846FFF793FB37E7022008F03FF86DE704F10801C8E704F58031C5E78C
:20210000022DB7D0012D7FF4FBAEB3E784060020800224430010094008100940B80100100F
:202120004010094020042243242208402C200940D801001000400340800104430C40094091
:202140001820094010ED00E071FDFFFF0146014801F0FABD840600200146014801F046BE4E
:202160008406002010B5054801F0E8FDBDE81040034B20211B6803201B6818478406002017
:2021800084010010431C0ED010B50446064B4FF4C0421B6800211B689847044AA3001A4374
:2021A0000023136010BD7047B4010010001A444238B504460D4607F089FF01230549064AD5
:2021C000A3400B6042F8245000B138BDBDE8384007F080BFE020024088060020064B0021A8
:2021E00003F1800243F8041F9342FBD1034B10201B681B69184700BF84060020B00100105C
:20220000F8B5094B094F1D6800241D60012606FA04F32B42E0B203D057F8243003B1984719
:202220000134202CF3D1F8BDE02002408806002010B584B00022412302A8029203930AF067
:20224000BDFA042007F07AFF032812D00321042007F044FF042007F071FF0328FAD1074AD2
:202260001C2312680090546800214FF040520448A04702A80AF0F8FA04B010BDA401001068
:2022800000A00C4000B583B00022412368468DE80C000AF093FA042007F050FF022808D0C2
:2022A0000221042007F01AFF042007F047FF0228FAD168460AF0D8FA03B05DF804FB00BF31
:2022C00000B583B00022412368468DE80C000AF075FA012007F032FF012803D0012103206E
:2022E00007F0FCFE68460AF0BFFA03B05DF804FB00B583B00022412368468DE80C000AF0EE
:202300005DFA012007F01AFF012803D0044B986B07F028FE68460AF0A7FA03B05DF804FB7A
:202320004800001010B582B0412368460024019300940AF043FA0320214607F0CFFE01204A
:2023400007F0FCFE18B1044B986B07F00BFE68460AF08AFA02B010BD4800001070B50388BE
:2023600004465BB140F22322934203D182290AD0012070BD00230380032070BD40F22323A6
:202380002380012070BD094B094E1D69FFF702FB09F088F909F040F98021A847002880B292
:2023A000ECDD09F033F933699847EFE774D8000088E30000024B186800F00100704700BFF3
:2023C0009C21084010F0030370B506460D4602D10288110508D407F079FE1B4B1B68DB07A6
:2023E00014D450B3002070BD438007F06FFE164B1B68DA07F5D5338813F4405F06D003F4C1
:202400004063B3F5006F04BF104B1E60104B114C1E6023684CF250322B6003E02368013AB1
:202420002B60DED013F0FF0FF8D050B12878A0F10100B0FA80F0400970BD07F04BFE002067
:2024400070BD07F047FEF1E79C2108400807002000100440041004400A4A01E0013A0ED00D
:20246000438803F44063B3F5806FF7D1428802F44062A2F58060B0FA80F04009704710464F
:20248000704700BF20A1070030B583B007F01EFE264C0546236819201B6A98472368122031
:2024A0001B6A9847236819205B699847236812205B6908349847236801205B6998472368DB
:2024C00001205B6B98470128F9D11949194B1A4A0860186013689B07FCD5144C174818492B
:2024E0002268002303600B60136919209847236812201B699847B5B140F2FF350AF034F9BA
:20250000104B114A1149124800240D60046001A91A601048FFF756FFA0F10100B0FA80F0E9
:20252000400903B030BD07F0D5FDE5E7B00100102C20084028200860282008401010046004
:20254000141004600010044051000706000004601C1004400100060440F60A0230B5164BDA
:2025600087B01D680024012301A8694604940194059502940394ADF804208DF81130FFF786
:2025800021FF012802D0204607B030BD0B4801E00138F9D0BDF8063003F44063B3F5806FC4
:2025A000F6D1BDF8060000F44060A0F58060B0FA80F0400907B030BD1007002020A107008A
:2025C00010B540F6090486B00023012201A8694604930193029303930593ADF804408DF8C3
:2025E0001120FFF7EFFE012802D0C0B206B010BD0F4801E00138F9D0BDF8063003F4406318
:20260000B3F5806FF6D1BDF8063003F44063B3F5806F02D0002006B010BD064B1A782AB905
:20262000054A0599012011601870DFE70120DDE720A10700EB2300201007002030B587B09F
:2026400007F044FD304C0546236819205B699847236812205B6998472C4B1B68DA0715D5EF
:2026600040F60D042A492B4A00230B6002A8136001A901220293059303930493ADF808406C
:202680008DF81520FFF79EFE01282ED0FFF798FF2148224B00240121214A0460196013685B
:2026A0009B07FCD51F4C012023689B699847236801205B6B98470228F9D1134C0AF05CF8BB
:2026C000236819201B6A9847236812201B6A9847236819201B699847236812201B6998476A
:2026E0000DB907F0F7FC07B030BD0F4A01E0013ACCD0BDF80A3003F44063B3F5806FF6D18E
:20270000BDF80A30C2E700BFB00100109C21084010100460141004602C200840282008604C
:2027200028200840B801001020A1070008B507F071FC052803460BD003280DD018B101280C
:202740000FD0002008BD094B03221A60012008BD064A0120136008BD044B02221A60012025
:2027600008BD024A0521116008BD00BFD0210840F8B5164A164B1268002814BF00241C468B
:20278000D30700D4F8BD07F0A1FC0646114D1249124A13484FF000472B680F600021046079
:2027A00011601B6A192098472B6812201B6A98472B6819201B6998472B6812201B6998478B
:2027C00006B1F8BDBDE8F84007F084BC9C21084000008080B00100101810046010100460A3
:2027E000141004600028064B14BF08220222002918BF0023034804491A4303600A6070471B
:20280000000080801010046014100460034B0028034A18BF00231360704700BF0000808006
:2028200014100460014B1868704700BF08070020014B1860704700BF0C07002008B5074B23
:202840001B68DB0704D4FFF71FFE012800D008BD034B6FF000421A6008BD00BF9C21084078
:202860001010046008B5124B1B68D90707D41148FFF7A6F8FFF708FE012800D008BD07F0DE
:2028800025FC0D4B1A6812020BD40B4B1A6812F00A0F1CBF6FF00A021A60BDE8084007F0B3
:2028A00019BC6FF400021A60044801F087F9ECE79C210840ECE10000101004606C000020F2
:2028C000014B1878704700BFEC23002008B500F08BF880B208BD00BF00F010B938B50C4D92
:2028E00004202B685B6998472B6804205B6B984701280446064BF7D11B6840F20140DB695C
:202900009847044B044A1C6013689B07FCD538BDB80100102820086028200840034B1B6802
:20292000002B14BF01200220704700BF14070020F8B503880446002B2ED0B3F5847F05D179
:20294000184B1B788B4205D00120F8BD002303800320F8BD144D2B6873B1144B144A1B6833
:2029600012685B680220174698470026301847F100012B6898472E600E4B40F201401B68C6
:202980009B6A98470C4B01210C4A196013689B07FCD50B48FFF7E0FB4FF4847323800120FB
:2029A000F8BD00BF1F03002014070020CC01001004800240B801001028200860282008407A
:2029C0007C00002008B5064B04201B685B6B9847012803BF034B1868C0F34000002008BD70
:2029E000B80100103C20084070B5274B1B689BB1264C0023224612F8011B29B90133042B9C
:202A0000F9D10020014670BD214A002502EBC302E55492E8030070BDFFF7D4FF00282FD043
:202A20001C4A1D4B1268134073B91C4A0121134611601A68002AFCD110464FF4807108F082
:202A4000E5F9174B01221A6007F040FB0646114A1368DB07FCD5134B134A1B6814685B6815
:202A60000220984723460022141843F1000516B12046294670BD07F02DFB2046294670BD7B
:202A8000FFF72CFFCCE700BF1407002018070020300300200880024001000080F09F0240BA
:202AA000A8025042CC0100100480024038B50E4D00240E4A2C6013680D4923F0010309688E
:202AC00013604B6931209847224620464FF4807108F09CF90122074B2A6019782246BDE873
:202AE0003840054801F03EB8A80250420C800240B00100101F0300209000002010B5074C55
:202B00002378802B00D010BD00F088FF207000210348BDE8104000F089BF00BF1F03002031
:202B2000900000200AB90020704708B508461146FEF75EFF002008BD0FB400B583B004AB58
:202B400053F8041B04481A46019300F025F803B05DF804EB04B07047A0000020102970B53E
:202B60000C46054602D80AE0102C0BD92B681022084968689847103C0028F5D070BD08465B
:202B80000029FBD022462B6868680249BDE87040184700BF50E200002DE9F04F834688469A
:202BA0008FB001924FF0000998F80030002B00F0E380252B08BF45461DD0444603E0252B71
:202BC00000F045812C466378651C002BF7D1454500F0D280C8EB050641463246DBF80030F2
:202BE000DBF804009847002840F03D826378B144002B00F0C1806B7805F10108002B00F0DF
:202C0000BB800025A3F12002102A1BD8DFE802F0171A1A141A1A1A1A1A1A1A111A0E1A1A36
:202C2000090045F0100518F8013FEBE745F00105F9E745F00605F6E745F00805F3E745F096
:202C40000205F0E7A3F13102082A00F2D580002404EB840403EB440418F8013F303CA3F135
:202C60003002092AF4D92E2B00F0CE804FF0FF366C2B00F0E280682B00F04481782B00F251
:202C80008180DFE813F079007F007F007F007F007F007F007F007F007F007F007F007F00FC
:202CA0007F007F007F007F007F007F007F007F007F007F007F007F007F007F007F007F0024
:202CC0007F007F007F007F007F007F007F007F00E2027F007F007F007F007F007F007F009F
:202CE0007F007F007F007F007F007F007F007F007F007F007F007F007F007F007F007F00E4
:202D00007F007F007F007F00DF027F007F007F00DC02D902D6027F007F007F007F007F004D
:202D20007F007F007F007F007F007F007F007F007F007F007F00D3027F007F007F007F004D
:202D40007F007F007F007F00D0027F00CD02CA02C702C402C1027F00CA027F007F007F0071
:202D60007F00BE02BB027D007F007F00B8027F00B5027F007F00B20248460FB0BDE8F08FC9
:202D800045F4407505F4E063B3F5806F08F1010800F06E815FD9B3F5C06F00F0A181B3F5C8
:202DA000E06F00F09681B3F5A06F7FF4FDAE019A012C136888BF04F1FF3402F104028DF8B8
:202DC000203098BF0024EB07019200F1F38121465846FFF7C3FE002840F045810122DBF86E
:202DE000003008A9DBF8040009EB02059847002840F03981254497E12A2B00F08D802E2BA3
:202E00004FF000047FF432AF98F8013008F10101A3F13002092A00F28D808846002606EB82
:202E2000860603EB460618F8013F303EA3F13002092AF4D96C2B7FF41EAF98F801306C2B19
:202E400000F05A8108F1010845F0600516E745457FF4C0AECFE6B3F5807F70D0B3F5407FA0
:202E60007FF4A2AE0198B24B15F4804FB14F18BF1F4603460168043301930A4600230029CC
:202E800000F0AB810DF1330E7046110941EA03714FEA131C02F00F0663460A46B95D00F8F2
:202EA000011D52EA0301F0D1BEEB000600F097810336B4424FF078034FF0300200F8013CAD
:202EC00000F8022C4FF023038CBFA41B0024EA0700F8033CA0F1030700F1BA812146584645
:202EE000FFF73CFE002840F0BE803946DBF800303246DBF804009847002840F0B48009EBDC
:202F0000060511E198F80130682B00F0B58108F1010845F04005B1E6019A08F10108134631
:202F200014680433002C0193B8BF45F0010598F8003098E62A2B00F0A681884696E6002E4A
:202F4000ABBF25F0100501230596059315F40053049305F0E00300F0F580402B00F0A882D1
:202F600000F29B81002B00F06182202B40F08A82019991F900200431D3170191002A73F13B
:202F80000001C0F25F82CDE902230023069305F4C053B3F5805F00F0F080B3F5C05F00F05C
:202FA000CC81B3F5006F00F0ED810DF1360A002741F60803059941F208028F4203EA050307
:202FC00080F08E819342A1EB070600F0518241F60802934207EB060100F08D8100231A46B1
:202FE0000293049B83B1069B002B40F0928105F00603022B00F053824F48062B08BF024693
:20300000029B08BF01230293029B0B449C428CBFE41A002415F00103049304D1E80640F1C8
:203020001D8226441C46029838B11146DBF800300246DBF804009847A8B9102E07EB0905AB
:2030400040F2C381B14603E0B9F1100F40F2BF81DBF8003010223949DBF804009847A9F1DE
:2030600010090028F0D04FF0FF300FB0BDE8F08F019A1346D2F800A004330193BAF1000F1B
:2030800000F0E8819AF8007037B1574617F8013F002BFBD1CAEB0707002E02DBB74228BF5C
:2030A0003746BC428CBFE41B0024E9072BD421465846FFF753FD0028D5D15146DBF8003085
:2030C0003A46DBF8040098470028CCD107EB09052AE0019A136804320192C3F8009063E579
:2030E000DBF8003001221649DBF8040098470028B9D109F1010957E598F8023045F0800527
:2031000008F10208BAE55146DBF800303A46DBF8040098470028A6D12146584607EB090599
:20312000FFF71CFD00289ED104EB05093CE500BF70E2000084E20000A8E2000060E2000088
:20314000B4E20000402B00F0AE8100F2B680002B00F06181202B40F0E080049A019906927F
:203160000A780023CDE902230B460433019305F4C053B3F5805F7FF410AFDDE902231343AD
:2031800000F09D810DF1360307939A46DDE90223D00840EA4370DE0802F00701334602462F
:2031A00030310AF8011D52EA0301F1D1079BCAEB0307FDE6DBF80030012208A9DBF804009A
:2031C000984700287FF44FAF2146584609F10105FFF7C4FC0028A7D045E70DF1330030236D
:2031E00000F8013C0426013863E645F4C855C9E545F41065C6E545F48065C3E545F48855B5
:20320000C0E545F4E065BDE545F48135BAE545F40075B7E545F40245B4E545F42455B1E5B0
:2032200045F4A065AEE545F4C135ABE545F4B245A8E545F4A135A5E545F48445A2E545F4E6
:2032400042459FE545F4E1359CE545F4C06599E53946DBF800303246DBF8040098470028DF
:203260007FF401AF2146584609EB0605FFF776FC00283FF459AFF6E698F8023045F0200564
:2032800008F10208FAE4019998F802300A4604320E68019208F10208EAE4602B00F0C680D0
:2032A000802B40F0EF80019B073323F0070303F108020192D3E9002360E6602B00F0AB8075
:2032C000802B2AD1049B0693019B073323F0070303F108020192D3E90023CDE9022356E696
:2032E000934200F0CD8041F608020026934207EB06017FF473AEDDE9022313433FF46EAE63
:20330000744B15F4804F744A18BF1A460223029367E601230293714A76E605F4C053B3F596
:20332000805F00F0D080B3F5C05F40F0AE8000230022CDE9022300230693694B15F4804FE1
:20334000DDE90201674E024618BF1E460B46134300F0B5800DF1360307939A4602460B4656
:20336000110941EA03711F0902F00F003B460A46315C0AF8011D52EA0301F1D1079BCAEB94
:20338000030715E6DDE9026732463B46134300F096800DF136039A460793304639460A22D2
:2033A000002309F085FE3032304639460AF8012D00230A2209F07CFE06460F4656EA07033A
:2033C000EBD1079BCAEB0307F2E556B1B1464A46DBF800304449DBF80400984700287FF48A
:2033E00042AE3A46029F51462F44DBF80030DBF804003D46984700287FF435AE049B3544E0
:20340000002B3FF491AE21465846FFF7A7FB00283FF48AAE27E6019A136804321946049B88
:2034200001920022CDE902120693B0E501990B460A6804330193002A4FEAE27373F100019A
:20344000BFF6A1AD524263EB4303CDE90223012306939CE5DFF898A006271DE621465846E4
:203460000592FFF77BFB059A00283FF4DCADFAE5002E08BF0126002302931A46B919B0E54C
:203480000126F8E7002200237DE5002306931F4600220023CDE902230DF1360A88E501236F
:2034A000124A0293B0E5049A019906920A8858E60199B1F900200431D31701915EE5002767
:2034C0000DF1360A74E500230022CDE902230023069352E698E200009CE20000A0E20000C7
:2034E00070E2000084E2000060E20000A4E20000ACE2000010B50446006830B1002100F055
:2035000095FA54F8040F0028F8D110BDF0B5038883B005465BB14A2B04D188291BD001203E
:2035200003B0F0BD00230380032003B0F0BD194800F008FC044630B1A168201D00F080F9D3
:203540002468002CF8D1144B01221A704A2301202B8003B0F0BD0F48019200F0F3FB044633
:203560000028F3D0019A031D9A4205D02468231D002CEBD09A42F9D12146064800F036FCC4
:20358000064E6269A369376832600BB1E06998473760DBE71C070020ED23002028070020D0
:2035A00010B5064B002406481C7000F0C7FB2146BDE81040034800F039BA00BFED230020CC
:2035C0001C070020A800002070B504460D48049D0078A261E361656130B9A1600A48214653
:2035E000BDE8704000F0B0BB084D094B2E68201D2B6000F025F92E602146BDE87040024872
:2036000000F0A2BBED2300201C07002028070020A800002010B5044C82B024680094FFF776
:20362000D3FF02B010BD00BF2807002070B5094B04461B783BB1084D084B2E6804302B60EC
:2036400000F008F92E602146BDE87040044800F07BBB00BFED23002028070020A8000020B7
:203660001C07002070B5094B04461B783BB1084D084B2E6804302B6000F0F6F82E602146F5
:20368000BDE87040044800F05FBB00BFED23002028070020A80000201C07002010B50A4B1C
:2036A00004461B783BB9C36003612146BDE81040064800F09BBB043000F0FCF82146BDE89E
:2036C0001040024800F092BBED2300201C070020704700BF10B50E4C2368B3B1FDF7FCFF2D
:2036E000226892E80A0092680B44191A4AB114685368926823441B1A994228BF1946002A2D
:20370000F5D1044B0144196010BD024A136010BD20070020240700202DE9F04103880546CE
:203720007BB1592B08D1872912D0822920D059232B800120BDE8F081002303800320BDE807
:20374000F081254A0120136059232B80BDE8F081214F39680029EAD0CB689A4203D024E0DE
:20376000CB689A4220D189680029F9D13960DEE7194F4FF000083C68002CD8D0002604E0D6
:20378000A3682646002BD2D01C46204600F062FA0028F5D022468821E06800F0E3F978B196
:2037A0000E4800F00BFAEBE739608B68002BBED0D86882420BBF9B6819468B609B68F5E7AD
:2037C000E060A3682EB1B360C4F80880FFF782FFD1E73B60F8E700BF20070020B8000020E1
:2037E00010B50446104800F0E9F91049E3680A684BB142B194420FD0134601E09C420BD0E3
:203800009B68002BFAD10A4BA2601B680C60E360BDE81040FFF75EBF054B1B68E360BDE863
:203820001040FFF757BF00BFB80000202007002028070020014800F0C1B900BFB8000020B5
:2038400010B5044600F0F2F92046BDE81040FFF7C7BF00BF10B5044600F0F0F92046BDE8F5
:203860001040FFF7BDBF00BF10B5044600F0ECF92046BDE81040FFF7B3BF00BFC068B0FA8F
:2038800080F04009704700BF05C81044704700BF024B1868003018BF01207047200700206F
:2038A000024B186808B1024B18687047200700202407002010B50F4B04461A68824213D0DA
:2038C00072B19368984208BF134605D043B19A68944201D01346F9E7A2689A60FFF7FAFE33
:2038E0000023A360E36010BD82681A60FFF7F2FEF6E700BF200700202DE9F843DFF8A48019
:20390000274DD8F800702E68874247D077B33B4601E0002B3BD01B689842FAD133B3837BAF
:203920008946044623B3002383736FB1BC424FF0870106D0BB7BDB0703D52246384600F0FE
:2039400033F83F68002FF1D1A3683BB14C4505D02C600022832104F10C009847D8F8000045
:20396000844208D12368C8F800302E60BDE8F88338468442F6D00028F7D003689C4208D065
:20398000002BF2D01A68944204D01346F8E7BDE8F883034622681A602E60E7E73B46BDE7E8
:2039A000280700202C07002070B586687EB104460A4802230460A37304F10C000D46B0479D
:2039C0000238012804D9832D02D00123A37370BD21462046BDE87040FFF78EBF280700200A
:2039E00070B50C4A0C4B146800251D7084B1012601E0246864B1E37B002BFAD0A673E57325
:203A0000204600228221FFF7CFFF2468002CF2D170BD00BF2C070020F0230020024B1878ED
:203A2000421C1A70704700BFF123002070B50F4D2C68844206D034B1234600E01BB11B68C6
:203A40009842FBD170BD0028FCD00346084E04600A46346801200021987399811846812149
:203A60002B60FFF7A1FF346070BD00BF2C0700202807002070B407480749084A0023084D76
:203A8000084C8A2603700B6013602E70237070BC704700BFEF2300202C070020280700202A
:203AA000F1230020EE2300202DE9F041234D2B780BB1FFF795FF224E3378BBB12148224FA0
:203AC0000278013B02EB4201890001327C1802F01F020270A068DBB233707F5CD4F80480C8
:203AE00098B1812F06D0827BD20705D428781844BDE8F0810123837342463946FFF754FFCC
:203B0000337828781844BDE8F081104A146834B9ECE7A37BD9070AD42468002CF0D02B785B
:203B2000002BF6D0FFF75CFFA37BD907F4D5424639462046FFF738FFEEE700BFF02300201B
:203B4000EF230020EE230020300700202C070020024A034B10781B7818447047EF2300205E
:203B6000F0230020F0B40C4D2C78202C11D00B4B0B4E1B78671C234403F01F0303EB4303CF
:203B80009B00F418A06062602F70F1540020F0BC70470120F0BC7047EF230020EE2300206E
:203BA0003007002038B5837B034CDB07256801D5FFF7FAFE256038BD2807002038B1837B91
:203BC000013B012B03D8024A01231370C3737047F0230020FDF7C4BD38B5094C049D2268AD
:203BE00022B180E82A002060002038BD024680E82A0008462260FDF7B5FD002038BD00BFA7
:203C0000B008002010B5084C206858B100224368816822609847236823B1BDE81040186837
:203C2000FDF7A0BD10BD00BFB008002010B541600446FDF751FD206010BD00BF90E80C004D
:203C400013440360704700BF10B50446FDF744FD206010BD10B50446FDF73EFD2368626810
:203C6000C3F101031844904294BF0020012010BDF8B504880546672C0BD0792C04D0CCB115
:203C8000002303800320F8BD85291AD11D4C002323601C4C264604E00A2814D023687E2BFC
:203CA0002ADD194800F0D4F8431CF5D167232B800120F8BDFFF7B2FE144A124B10701C6053
:203CC000E7E70120F8BD0F4C114F23680F4A581C0026117820603A463046FE54FFF742FF7F
:203CE0000C4B324618688521FFF73CFF0028CED179232B800120F8BD05495A1CC854326048
:203D0000CFE700BFB4090020B8090020932E0020340900202807002008B5054905488022E9
:203D200000F08EF8BDE8084000210348FFF77EBEB4080020B8090020C80000200023036057
:203D4000704700BF0068704710B404685CB1A14223D023680BB906E0134699420FD01A68F1
:203D60001C46002AF8D100230B6002680AB910E01A461368002BFBD1116010BC70475CB170
:203D80000A68226000221A6000230B600268002AEFD1016010BC70470C4622682346026026
:203DA000F0E700BF30B4056865B1A94219D02B682C460BB906E01346994207D01A681C4694
:203DC000002AF8D10D60016030BC704744B10A68226000221A6005680D60016030BC70471C
:203DE0000D462A682B460260F3E700BF10B404685CB18C4212D023680BB906E0134699421C
:203E000005D01A681C46002AF8D110BC70472CB11A68226000221A6010BC70470A680B46B0
:203E20000260F7E703682BB100201B680130002BFBD170471846704700B10068704700BFD5
:203E40000023013A0160027143718371704700BF0346807959791A79091A114207D010B45A
:203E6000411C1C680A40205C9A7110BC70474FF0FF30704708B5064803F082FB054B0022FB
:203E80000120FD21187099705A70DA7008BD00BF394900003C0B002030B414780B7A84F068
:203EA0000204A34215D00B891BB94B89B3F57F4F30D01F4D01222C6801F10803824004F1A9
:203EC0000801296003CBD3B220606160184630BC70474C7A53789C42E5D18C7A93789C42A7
:203EE000E1D1CC7AD3789C42DDD10C7B13799C42D9D14C7B53799C42D5D18C7B93799C4250
:203F0000D1D1D379CA7B9A42CDD1032101FA00F3DBB2DBE78B89FE2BCBD1054CCB8922688B
:203F2000022122F8023B01FA00F32260DBB2CDE7C809002010B5124C0220A17907F026FCED
:203F4000A379112B09D0062B07D03A2B0FD0BDE810400021012007F019BC218D638D012022
:203F60009942A8BF1946BDE8104007F00FBC218D012049BA89B2BDE8104007F007BC00BF6E
:203F80002024002010B5084C2378012B01D0002010BD01460822A01C09F01AFA00280CBFF2
:203FA0002046002010BD00BF3C0B002008B50146102007F0F9FB044B00219B6803489847CC
:203FC000BDE80840FDF7E6BCBCE30000D13F000010B50C461146204602F032FD044B1B68E8
:203FE00013B19B6820469847024B1C6010BD00BFA01000204C0B00202DE9F041154D00234D
:204000002A469478713234B101330C2BF9D14FF0FF30BDE8F081C3EBC30403EB04142F1920
:204020007970064607F00CFBDFF830800A4A98F800301168C01A2E55B870CC1807F000FBDE
:2040400098F800202146821AF81C09F0F3F9B878BDE8F081500B0020480B0020F32300204A
:204060002DE9F84F074614467ABB884692465C4EFF254FF0FF3936F8063CB3BBB9F1FF3F56
:204080004BD00134022C06F1B806F4D1B9F1FF3F00F0A380B82000FB09F4DFF84C910F207A
:2040A00009EB0406A6F81280378207F089FB0146304606F0C7FE04F1180048444021FFF736
:2040C000B5FD2B4658B2BDE8F88FDFF81C81002645462B8ABB4224D00136022E05F1B805A2
:2040E000F7D1FF2358B2BDE8F88F3046FFF7B2FD002835D03B4B26F806AC03F24C51E0B2DE
:204100009A7822B11A78824208BF83F802A071338B42F5D1B9F1FF3FB3D1E5B24FFA85F97F
:20412000AFE76B8A002BD7D00F2007F049FB0146284606F08DFE0028CED0F5B22846214640
:20414000FFF75AFF002813DB0028CADDB82303FB06862B46B28A1044B08258B2BDE8F88F5D
:20416000B9F1FF3F8DD136F8063C002B89D1D4E74FF0000B5F46D946DFF864A03AF8063CEC
:20418000F3B1BE421CD05046FFF764FDC0B1B8235FFA87FE03FB0E82124BA2F8129003F25C
:2041A0004C504FF0000C9A7832B11A78724504BF83F802900CF1010C71339842F3D1E34497
:2041C0000137022F0AF1B80AD8D1BBF1000F88D021462846FFF710FFB6E72B4682E700BFED
:2041E000E4090020500B0020CC0900202DE9F04715090F2D06469A4602F00F042CD00F2C33
:2042000036D0A046A9466719D5BB0F2F03DD5CB9E5B9BDE8F087C7F1100206EB09000021E1
:2042200009F0E2F9002CF3D0DFF87490C8F11000D9F8007030443946224609F0FBF8022C61
:2042400020D03C44C9F80040BDE8F08751463046BDE8F04702F0E2BA0F2C4FF0100918D0DF
:204260004A464D46A046A718304609F0E3F8CCE74FF01008A94605F110074446002DD3D0CC
:204280002A46F1E70A2DDCD8FF22FE23F2723373D7E74D46C8464C4620272A46E4E700BF6D
:2042A000C80900202DE9F04F0F2089B0DFF81083B84D07F085FA4FF0000A06F067FE88F847
:2042C00000A085F800A007F0A7F9B34E3060042007F064FA3368B1491C7800B25A7808606B
:2042E00004F0F801C02942EA042278D0E02965D129789F7893F80490D878C2F30A044B1DBD
:2043000040EA072021464A462B70FFF7A9FE411C074661D0A24AB82303FB0023D346CDF87C
:2043200000A0B3F814A00123A24534BF4FF0000A4FF0010A019307F083F92B78954D83429C
:204340004AD807F07DF92B7898F80080C51A08EBC909944AA944B9F57A7F15603CD8BBF1D0
:20436000000F06D031680BEB080019442A4609F061F8002C00F0DD80009B4BB188497BB294
:20438000B82000FB031308EB050292B29A821A84BAF1000F40F01881019BEBB9824B454423
:2043A0001D80824C236823B1FFF7C4FD23685B68984703F0FFF809B0BDE8F08F5746544651
:2043C000DFF8F8B1CDF800A02A78995C01F0E00060284AD041291CD009B0BDE8F08F29781A
:2043E0009F78D878C2F30A040B1D40EA0720524621462B70FFF734FE07460130ECD0684A6C
:20440000B82303FB072202F1220B012233680092DAE75946501CC0B2034403F12000D3F8C6
:2044200000A0D3F80490D3F808C0D3F80CE010338342C1F800A0C1F80490C1F808C0C1F84B
:204440000CE001F11001EAD118685B6808604B6098F800302932283388F80030009B4FF05C
:20446000000A2A70D146019365E7981890F801A002321344DFF84C914FFA8AF2002AC9F8D9
:204480000030B8BF01330192B8BFC9F80030CA065AD501F0080303F0FF00002B40F0C781B6
:2044A000D9F800301A461B78C3F3830343F060038BF8003012F801EBABF802004FEA9E030E
:2044C00003F0300343EA8E13C9F800208BF8013001F0040303F0FF0202923BB9D9F80030DE
:2044E00013F8012B8BF80620C9F8003011F0030100F0A2802E4B5B5C8BF807301AF0400F91
:20450000CAF3011300F07681019A002AC0F2B1810021002B00F09980264A1078012800F0D4
:20452000D081254A00239A4699461360009B019301E7019B002B3FF431AFBAF1000F3FF488
:204540004BAF194B1C802CE70B0700F17981D9F80030184633F8012F9B78ABF801208BF83D
:20456000033010F804EB9BF801204FEA9E0303F0300C02F00F024CEA8E1E03F00F0343F037
:2045800060034EEA0202C9F800008BF800308BF801209DE7F3230020480B0020C40900204A
:2045A000CC0900209C1000200C240020A0100020E8E200003C0B0020C0090020202400209C
:2045C000F2230020C80900204FFA87FAB82101FB0AF1DFF838B3C4480BEB01063146328C1B
:2045E000B4822231C14E08F025FFBF4B06F24C5916F8012C22B116F8031C8A4500F049819C
:204600007136B145F4D1B8225FFA8AFA02FB0AB3B74A002108465982FFB202F24C5193782F
:204620001BB11378BB4208BF907071329142F6D1019B002B85D1B1E6D9F8003013F8012B36
:204640008BF80720C9F8003058E719460BF108020392A84A0F20D25C0591049207F0B0F86C
:20466000049A034605990398FFF7C0FD0AF0080303F0FF010AF00302002B37D01AF0040F21
:204680000FD19D49531E0988012BADF81C1040F243819A4900238A5C0BF1180007A9FFF7B9
:2046A000A5FD98F8002002F1280388F80030029B002B41D1D9F800303268DFF854929B1AF3
:2046C0002B70002C00F0A480A4F128031A128BF805308BF804209BF80630112B00F0CF8070
:2046E000009B4FF0000AD146019324E61AF0040F00F0D980019B002BC0F2EE80DFF814A247
:204700009AF80030012B7FF40CAF9AF801308B427FF407AF77497A4B8A5C10200192C3F8DB
:2047200000A007F04DF8019A03460AF102010BF11800FFF75BFDB4E7D9F80030197801F03B
:20474000F801F029B8D111218BF80610187800F0F301F03900F00400C0B20329C0D8DFE865
:2047600001F03D332202597802330909A1F5756189B2090241F0F001ABF8281013F8011CC5
:2047800001F00F01A1F5756189B2090241F0F001ABF82A10C9F80030002800F0C6803032B6
:2047A00088F8002088E759780433A1F5805189B2090241F0F001ABF8281033F8021CC9F82E
:2047C0000030ABF82A10E7E7B3F801100433ABF8281013F8011CA1F58051D5E7B3F8011029
:2047E0000533ABF8281033F8021CC9F80030ABF82A10D1E7434A0F20D25C039206F0E0FF83
:20480000039A034640490BF10800FFF7EFFC2DE706F016FF99F8002098F80030801A0344D3
:20482000283B1A128BF805308BF8042053E7002360228BF800208BF80130ABF8023047E652
:20484000D9F80020602310468BF8003010F8013B03324FEA930E0EF0300E03F00F034EEA0F
:2048600003038BF801300388C9F80020ABF802302EE631682A780A449178090949E6BBF8A3
:2048800004304FF0000AABF82C30009BD146019351E516F8020C314603EBC000009308F054
:2048A000C9FD009BACE6174B102013F802A006F087FF5246034614490BF11800FFF796FC70
:2048C000EFE6507888427FF42CAE0D48911C02600BF108020392BCE631682B780B449978E7
:2048E00001F00F010AE700BF20240020530B0020500B002004E30000E4E2000000E300001A
:20490000C0090020ECE20000F0E20000CC090020F32300203C0B0020D9F8003013F8011B54
:204920008DF81D10C9F80030B3E633F8021BABF82E10C9F8003032E72DE9F04FAE4EDFF8E0
:20494000E4B2002387B033708BF80030044606F0A9FE06F061FEA94BDFF8CCA21B68CAF857
:2049600000000BB1FFF7E6FA04A80190002C00F09382214606F066FAA14B1B883E2B32D977
:204980009BF80070DAF80080002302379D4D08F807309D4808F102032B60FFF7F3FA0028CC
:2049A00000F0078108F103032B6080230293974C62782178130943EA0113DBB2980840EAB3
:2049C0008313DBB210075FFA83FE5CD16088002859D1080740F0F58012F0F00F40F0F18006
:2049E0004FF078095EE0894C9BF800C0A646DAF800300CF10105EDB241221D441A7004F1BE
:204A0000200877460FCF474528606960AA60EB600EF1100E05F11005F3D1BEE80300286084
:204A2000696033780CF1290C28338BF800C033700199102006F0B8FE754BDFF8E8911B6886
:204A400098476F4B002837781B889BF80080ACBFC0F17D056825A3EB0702C8EB0501B8BF3E
:204A600015208A4240F3B480C0F1780293FBF2F7029206F0C3FE01388742C0F2D7800020B6
:204A800007B0BDE8F08F090703D112F0F00F00F082802A6820681346106003F804EB2B600C
:204AA0004FF06009A379112B68D1E37949F00409402B6AD0FF2B00F00F82012B68D02A68D5
:204AC00002F8013B2A602389504A3BB953892BB993891BB9D389002B00F034824D48FFF774
:204AE00051FA4D4B1860002800F07781417818F807304A4A43EA011308F80730454904208D
:204B0000FFF7CAF960F03F00C3B20293237E3F49FF2B00F08E8101F118000391FFF732FA31
:204B20003D4A03991060002800F0BA8118F8072043780298134340F0040E08F807301831EB
:204B4000019A00205FFA8EF7FFF7A6F938432F685FFA80FEA3792822112B32702B4900F096
:204B60000E81DAF800309BF80020FF1A991803F802908BF8007081F801E059E72A6802F881
:204B8000013BE3792A60402B94D149F002099AE749F0010997E7296823F03F031343204AF7
:204BA0000B701288CB1CA1F801202B604FF0680978E71848FFF7E6F900287FF4F3AE0290A2
:204BC000F5E62B684FF0700903F801EB2B6069E7DAF80000E119404408F02CFC084B18888A
:204BE0004044C01B80B206F011FD0198FFF7DEF9012007B0BDE8F08FF2230020A0100020B9
:204C00000C240020C809002038240020202400207CE3000028240020C00900201824002063
:204C200022240020F3230020480B0020DAF8008099F80070B64E41463A46002308F10400E7
:204C40000437336008F06CFCF9B20E46B14BB2481A88B24B120A62F03F0288F80020AD4A4C
:204C6000B3F800E012886D1A017825F007054FEA1E20AB4F88F8012088F803E02A460EF10A
:204C8000010E88F80200214408EB0600A3F800E03D6089F8006008F0CDFB701980B206F0BB
:204CA000B5FC06F0B1FD9F4D804600283FF4E7AE0198FFF77BF9404606F0F4FD404606F011
:204CC000DBFD934B1B68012B3FF4D9AE043B012B7FF6D5AE8F4B90491B882A681B0A63F0F2
:204CE0001F030D788B49137002983B6809881D4420F0070005235170ADB2386089F80030DF
:204D0000B84632E03E68DAF80030B242B8BF16469BF80090B8BFC8F8002003EB090032462B
:204D200083F804E008F086FB09EB060080B206F06DFC06F069FD064600283FF4A0AE019826
:204D4000FFF734F9304606F0ADFD304606F094FD6F4A3B6812681D44012AA2F10403ADB2C2
:204D60003FF48DAE012B7FF68AAE6A4B61191B884FEAD50E9D42A3EB0502C3D338E74FF294
:204D8000B002088D030A43EA00239BB223F00F0080B2904200F0A380498D0A0A42EA0122B0
:204DA00092B202F47F42B2F5704F00F0218103F47F43B3F5704F00F0EB805B4BF0223A7023
:204DC00018687B1DC7F801001F46584B30221B88327027F8023B2F60C3E648F2FE032289E2
:204DE00053499A420FD14B8B6BB98B8B5BB9CB8B4BB908314F4A0420FFF74EF8029B0343C8
:204E0000DBB2029382E6D5F800C0DFF830E10CF110032B60BEE80F00CCF80410CCF80000A7
:204E2000CCF80820CCF80C30237E4149FF2B7FF472AE029A4B7E42F0080E022B5FFA8EFEDF
:204E40004A8B00F0AF80002A34D18A8B002A31D1E18B374A71BB118C31B9518C21B992F80D
:204E60002410002900F0CF80218C314A11BB92F82210F9B92F680298394601F8013B52F805
:204E8000233F40F0090EC7F80130137906375FFA8EFE0B712F605DE6274905F0D3FF6BE5F6
:204EA00048F2FE030A8B9A4202D14B8B002B5FD0DDF808E0D5F80080DFF884C008F110070E
:204EC000BCE80F002F60C8F80000C8F80410C8F80820C8F80C303DE649F00309F3E5B1F82F
:204EE0002AC04FEA1C2242EA0C2292B222F00F0C84457FF456AFF3233B700A8D4B8D120AF9
:204F00001B0A03EB021303F5AA637B70BB1C5BE74C0B00200C240020F2230020DA23002047
:204F20009C100020480B0020482400204E240020202400201824002050E3000028240020B5
:204F400038240020138A002B7FF4C8AD538A002B7FF4C4AD938A002B7FF4C0ADD38A002B89
:204F60007FF4BCAD029B43F04003DBB20293CDE58B8B002B9CD1CB8B002B99D11831019AF1
:204F8000FEF78AFF029B2F6803435FFA83FEE1E5F2233B70238D254A1B0A7B7012883B1D98
:204FA0007A8011E7002A85D18A8B002A82D1CA8B002A7FF44DAF0A8C002A7FF449AF4A8CFE
:204FC000002A7FF445AF8A8C002A7FF441AF91F82620002A7FF43CAF2F6891F82730029A33
:204FE00007F8013B42F00B0E5FFA8EFE2F60B1E5F1220F4B3A701A883B1DA7F80120628D61
:20500000120AFA70E0E62868014601F8013B32F825CF029B071D43F00A0E93785FFA8EFE1E
:20502000A0F801C02F608B7094E500BF4A24002048240020013A0A44914230B414D20C46C3
:2050400025786378023403EB05239BB2184480B2834284BF013080B2A242F1D8CB43134434
:2050600023F00103023319448A4201D030BC7047137830BC1B02184480B2834284BF0130EC
:2050800080B2704730B5134B134D1C782B796A79C4EB0323134483B09BB2ADF80630BDF82D
:2050A000063005F108011844202280B2FFF7C2FFBDF8062004F12801294492B2FFF7BAFFDB
:2050C00018B94FF6FF7003B030BD40BA80B203B030BD00BFF423002020240020022001461C
:2050E000F8B5304F304D3A78304E2832AB185B783070DB0003F1070E4FF0000C704543DC44
:205100008318EC5C2B44012C12D019D3632C07D1BCF1000F41D103F0C5FDA0B90120F8BD29
:2051200004F0C004802C19D0C02C26D0402C1FD0597802310844C1B208464FF0010CDDE7C4
:205140000130C1B2F8E73B783278283313441D446B780020134402333370F8BDBCF1000FB9
:2051600019D102440221042001F0AEFF0220F8BDBCF1000FD2D03170D0E7BCF1000F08D1F8
:205180002B7EFF2BEDD1C9E7BCF1000F07D10020F8BD3170F4E73170E3E73170BBE731709A
:2051A000F5E700BFF423002020240020F623002070B4C278134C0A44D2B2E27083780E0A8C
:2051C0003344DBB2A37045789E4265700078207003D90135EDB265708DB1C9B28A420CDA4D
:2051E0000133DBB2A370074A3BB953780133DBB2537013B913780133137070BC7047013025
:205200002070EAE71424002010B5084C014620681430FFF7CDFF064A2368507814789178AF
:20522000D2781C7558759975DA7510BD18280020142400203A20FFF725BF00BF08B501F043
:205240000DFB02F02DF802F087F90F4B002103F1280223F8021F9342FBD10C4B002103F5D7
:20526000F07283F8251030339A42FAD1084A094B4FF48061118003F5A07100221A8220339D
:205280009942FBD108BD00BF022A00201C280020DC230020302A0020F8B5114E3478F4B13D
:2052A000104F04F127033D88AB4203DB00233B803370F8BD0C4BA5F128021919121B1846D6
:2052C00008F02EF903462C1BA4B2A4F12802101200213C8003F8232C03F8240C3170F8BD40
:2052E000F42300200C24002048240020074A002332F8021F814203D00133142BF8D1704753
:20530000034A002122F81310704700BF022A0020042A00202DE9F04F042885B02DD0B14A24
:20532000DFF8E4B2DFF8E492DFF8E4A20328DBF80050C9F80020CAF800202AD0022800F031
:205340009880052800F0688112F83C3CA2F13C0403F0F003602B00F0E080A34BA34E0093A7
:20536000DFF8B082A24B00221A70009B328088F800201A7005B0BDE8F08F9B4B9B4E9D4887
:2053800000930388002B40F06381994BDFF88482E9E795F8251001F00F01032900F0ED80D3
:2053A0000229DAD1A2F13C0404F1180301938E4B8E4E00930223042284F8351084F83C3064
:2053C0000021402384F83D20602284F83E1084F83F30338084F834202B7DDFF8288284F811
:2053E00030306B7D019F84F83130AB7D84F83230EB7D84F833302B7E84F82C306B7E84F8B5
:205400002D30AB7E84F82E30EB7E84F82F302B8A23856B8A638595E80F0087E80F0008F1AB
:20542000180108F1080001F06DF995F8253003F0100303F0FF02002B40F04B81402388F815
:20544000362088F8373033886B4A283B1579062100221E12084663712671E571A17184F898
:205460003B2084F83A202287FFF70CFEC043208720E1624C5D4EE2785D4B01325D48002153
:20548000D2B2E27031801970018062B9A2780132D2B2A2703AB962780132D2B2627012B95C
:2054A00022780132227095F8251001F0FD02052A00F08980002900F08F80AA8B002A00F03C
:2054C000F08295F82620541E85F82640002A40F0838095F82720082A00F02B834C1E012C9A
:2054E00040F22483042A9CBF0324944001F00F0194BFE4B2302401324F1E85F8272085F830
:205500002640072F68D8DFE817F00901F8001101FF006700FF006700FF002379334E61790B
:205520001B0230885D18854200F3D980207A28310B44FF28338000F0D280314D363A2C4B4B
:20554000DFF8D080A1792A6000221A7088F80020002940F012810122009388F80020FFF7FC
:20556000BDFD0128009B00F05E81C0F0FC80022840F003811C4B0093A1E0AB8B002B7FF485
:20558000ECAE194A082300921370184E02F062F91848009B1A7802F0200303F0FF01002B5B
:2055A00000F08D82174C002385F825301422038004F1180384F8352001933C2333805023E1
:2055C00084F8343008E795F826200132D2B2782A85F8262000F08980034ADFF838800092A6
:2055E000C1E600BF5C240020082800200C240020F42300202C2A0020782B0020A4100020C1
:205600000C28002020240020182800201428002010240020F5230020A14B1B681B8A002B4B
:205620003FF49BAE9F4BA0481C46A04E0C3A00930821002303800190C9F80020CAF80020D0
:20564000CBF800303380217002F004F9019898E6934A974C126803F1080149BA002092F829
:2056600014E0A185E085118A303321859BB2508AA3F128010D124FF0110884F807E02571B3
:2056800060853380617184F8068004F118050FCA85E80F00294604F1080001F033F8854BDF
:2056A00004F13C0240461A60FFF7ECFCC04380B258B1E08500236022227063706380009AAF
:2056C0000023137005B0BDE8F08F4FF6FF73E385F0E7002388F8373088F83630B3E6714B10
:2056E000DFF8DC810093744B3DE6002285F825206C4ADFF8CC81009235E66A4B6C4C009396
:2057000004F11803019355E6664B694C009304F118030193112384F835304EE7614B644C67
:20572000009304F118030193122143E65D4A042301901370009202F08DF801980388DAF8F5
:205740000020C9F80020002B00F0D081AB8B002B00F0CC81564C3C3318223380A31884F809
:20576000352001932BE71A7802F1280121444878083202EBC00229601A7000934F4B1846D4
:20578000019300F099FE009B002800F009822A68494910783C2800F27C81DFE810F06F017A
:2057A0007A017A017A017A017A0104017A017A017A017A017A017A017A017A017A017A01AF
:2057C000B5007A017A017A017A017A017A017A017A017A017A017A017A017A017A017A01DF
:2057E0007A017A017A017A017A017A017A017A017A017A01930044007A017A017A017A0118
:205800007A017A017A017A017A017A017A017A017A01620044004700FFF734FC4FF6FF726C
:205820009042009B7BD01F4A00929CE598F80000870740F18F81470600F12B81204A40F051
:205840004000107002930091FFF748FC01280099029BE8D0C0F0838102283FF48BAE2A6835
:2058600097E73A200093FFF70DFC4FF6FF729042009BD8D11A7800932832A05C01F086FE02
:20588000009B1A782832A1184978A05C01F0F8FB0128009BC7D03288002AC4D06AE600BF45
:2058A00010280020082800202C2A00200C2400202024002014280020F42300203824002007
:2058C000F523002098F8000000F0040E0EF0FF070097BEF1000F40F0DC8093F800C0A64FD9
:2058E0000CF12802224492F803E040F004003870BEF1000F40F0318250780CF1080C0CEB61
:20590000C00008702A6044E70093FFF7C5FCE28D1120A071994D009B002A7FF47DAF6F8D59
:20592000002F80D0964BDFF87482954DC8F80030238D05F5A074009305E02035A542C8F836
:20594000005080F07B812B8A002BF6D0BB42F4D16B8A10228B4813B100998B42EDD12B68AE
:205960002BB96B681BB9AB680BB9EB6823B1294607F02EFD0028E0D1834933880C46834890
:20598000834A303B009133800221002303800190C9F80020CAF800202170CBF8003001F0F9
:2059A00059FF0198EDE40093FFF776FC06221046A271FFF767FB4FF6FF7290426F49009B66
:2059C0007FF431AF4F8D002F3FF42DAF0A8D0092002A3FF428AF03966E4D1E4604E06E4BA8
:2059E00030359D4200F0378195F825300293002BF5D02A8ABA42F2D16A8A009B9A42EED1B7
:205A0000102229465F4807F0E3FC0028E7D194F835105D4A4F07334600921070039ECBF8CB
:205A20000050564A00F1FD8392F8340032880009283AA2EB8000029A80B202F00F02022A18
:205A4000308000F09684012A00F08C8410B98F0700F05A82B4F82CC0B5F814E04748F44535
:205A600000F04C82880705D5012A3FF45DAE022A00F06682102384F835309EE598F800006B
:205A80000293C307009104D43B4B40F001001870DAE6121B0121042001F016FB3A4B0093B2
:205AA0000DE601F00F0103297FF496AD364A082301900092137001F0CDFE019869E502F02A
:205AC000100303F0FF0403B32C4C042285F825204FF0010E112304F1180285F82710A5F8C5
:205AE0001CE00180019284F8353066E5009B1B7898077FF54AAC214C10223C2384F8352064
:205B000004F118020192338059E503881F494BB1D70740F19980AC83EA8B934288BF028099
:205B20000388AB83002285F8272008E6052A7FF4D9AC154A002385F82530104C80231370DB
:205B4000009201F087FE142384F8353004F11803019332E5084A40F00200107072E618787E
:205B600000F12802224492F801E0083000EBCE002A6018700DE600BFF523002020240020E8
:205B8000302A002028240020082800202C2A0020502400201C280020FC29002010280020C4
:205BA0000198009300F044FD009B00287FF4EFAD217E019AFF29A2F1180200F0D78048F226
:205BC000FE05108BA84200F0D1801089A84200F0D38080B9518971B9918961B9D18951B961
:205BE000128A42B9618A8A4A29B9918A19B9D28A002A3FF418AE218B854A81B9518B71B946
:205C0000918B61B9D18B51B9118C41B9518C31B9918C21B9D28CB2F5807F3FF404AE3388EF
:205C2000B3F5A06F00F2E580E379794A012B40F2D880013BD371774B009340E50022042140
:205C4000012001F041FA95E4AA8B002A3FF464AF13460A8066E794F83520334602F03F021C
:205C6000022A039E54D06B4A009294F83510684A49073FF578AB92F832C092F8335092F8AF
:205C800031E092F82F0092F82E1082F82EC092F830C092F82D30013082F82F5082F82DE0F8
:205CA00092F82C504FF0140EC0B282F82CC082F835E04FF03C0C4FF0500E82F8330082F8CB
:205CC000321082F8313082F83050A6F800C082F834E060B90131C9B282F8321039B9013319
:205CE000DBB282F8313013B96B1C82F83030228D638D494D019F6285238595E80F0087E8B0
:205D00000F0005F11001284600F0FCFCFFF79BBB4249002201E0142AA5D031F8120001321C
:205D2000B842F8D1002529463D4A05E001310A2902F1300200F0248392F82500002873D065
:205D40000728F3D1002D00F0208392F826E095F82600864588BF1546E8E70CF12A0200994F
:205D6000042001F0B1F92B4B0093A8E448F2FE02208990427FF457AD2089254A78B9508981
:205D800068B9908958B9D08948B9108A38B9508A28B9908A18B9D28A002A3FF444AD208BD8
:205DA0001B4A80B9508B70B9908B60B9D08B50B9108C40B9508C30B9908C20B9D28CB2F555
:205DC000807F3FF430ADFF293FF42DAD1548019300F052FB0246A0B10E4B0093019BFFF73A
:205DE000C2BA00221146032001F06EF9094B009365E44FF4A0620021022001F065F9FFF736
:205E0000B9BB0221012001F05FF9024B009356E4202400200828002028240020042A0020F9
:205E20001C28002038240020B24B302505FB0135B14BBDF8001093F800E058786982AF4A1A
:205E40009978DB782F8294F82C7085F818E0687694F82DE0A976EB760FCA85E80F0094F8B8
:205E60002E100323042201202F75002785F8232085F815E0A97585F8263085F8243085F83B
:205E80002500CBF8005085F8227085F82770A88394F82F30EB75FFF7B7F994F8342002F0B9
:205EA000F003502B15D91209053A3B46920007E0022811D097F83D1059B10B44934208DA3B
:205EC000E11891F83C000F4618B10128F0D10133F4E78B4B009327E491F83D000428E9D1CD
:205EE00091F83E2091F83F30854943EA0223402B28BF40230091EB832B8415E4B0F82EE091
:205F0000E88A86457FF4AEADC90601D5A98BD9B9013A072A3FF627AA01A151F822F000BFDD
:205F200033600000D95F000011610000B16000005362000039620000755A0000A15F0000F4
:205F400041F00201FFF736BA05F118000293FFF72FF96C4A94F8300092F800E06A4986450C
:205F6000029B00F0878195F82520029202F00F02013A072A3FF6F7A901A151F822F000BF26
:205F8000F7610000C35F000011610000B16000005362000039620000755A0000A15F0000E5
:205FA000009A1178564AC9077FF5DDA9002185F8251010210193117001F04CFC019BFFF770
:205FC000D2B9009A1278D00706D594F835204E4902F03F02122A0CD00293009B20221A70A1
:205FE00001F038FCDBF80020002182F82510029B3BE691F8342002F0F001502933D912099B
:20600000053A009F92000021601890F83CE08446BEF1000F0BD0BEF1010F47D0BEF1020FDA
:2060200010D09CF83D0010B101449142ECDB009719E094F8352002F03F02022A7FF493A990
:20604000FFF772BB90F83DE0BEF1040FE9D190F83E1090F83F20009742EA0122402A28BF08
:206060004022EA832A8494F82C1094F82D2094F82E00297594F82F106A750322A875E97560
:2060800085F8252001200193FFF7BEF8019B00221E481A70009B4221AA830280019032803F
:2060A000197001F0D7FB0198FFF773BA0131BCE7308818B10293FFF7A7F8029B94F83520DA
:2060C00012F0010200F08C80009B1B78DF0740F183800023072285F8252085F82630AB8368
:2060E0000120FFF791F8009A1023137001F0B2FBC0E400BF1C280020A4100020282400200B
:206100000828002014240020202400202C2A002094F83520D10722D50299CF061FD4AA8BB5
:20612000002A7FF420A93088013080B2FFF76CF800983188037843F010020270944A11B161
:2061400043F01203137001F085FB012108220023A98385F8252085F82730FFF7DBBA9006B1
:2061600010D5628FD9F8001052BA94F83A0094F83BE092B20A4431884EEA0020C9F800206B
:206180000A1A3280308858B1029AD10608D4009901930A7842F002020A70FFF735F8019BFB
:2061A00094F8360094F83720298C02EB002292B28A4202D8002A18BF1146009AE9831278A4
:2061C00092073FF4D0A8734800230380019001F041FB0198FFF7DDB9062385F825307FE7D6
:2061E00000990978C80740F1A7800521AA8385F82510FFF7B8B8009A1278D7077FF519AFB5
:20620000032300993088402285F825300023AB830A705F4B0028D6D042221A70FEF7F4FFBA
:20622000D1E701935A4B202285F825001A7001F011FB019BFFF797B8009A1278D1077FF5B1
:2062400092A80721002285F8251085F82620FFF78AB83088DFF84091002873D194F8352060
:20626000D2077FF580A80722002385F8252085F8263035E791F8310092F801C084457FF46B
:2062800072AE91F8320007469078B8427FF46BAE91F83310D2788A427FF465AE95F827101C
:2062A00085F818E085F819C0A876EA76F1B995F8242095F8260095F82210121AA2EBD1021C
:2062C000D2B2D0B20706114444BF5242D0B295F82320C9B2A2EB92020244D2B285F8221058
:2062E00002EBD10185F8241085F8232095F8252095F824100292009F02F00F02012085F807
:206300002610013A00213870A983072A3FF62BA801A151F822F000BF01620000C35F00009D
:2063200011610000B16000005362000039620000755A0000A15F00003288002A7FF49AAB1F
:20634000FFF711B80293FEF75FFF94F83520029B12F0010F87D1B9F80020002A7FF48AAB0B
:20636000FFF701B801F03F0EBEF1020F7FF46EABCAE501F03F0EBEF1120F7FF467ABC3E5FA
:20638000002D7FF455ADFFF74EBA1546CEE400BF082800202C2A00200C240020020C131248
:2063A00043EA02239BB240BA43EA0040704700BF2DE9F84302FB0105099F1646A8424FF0E0
:2063C00000023A609DF820801CD2044699464FEAD80807E04246494606F0FAFF78B134442E
:2063E000AC4207D22378A01C002BF3D13C603444AC42F7D33B682BB10120BDE8F8833C6068
:20640000BDE8F8830220BDE8F88300BF2DE9F041174D82B0009104460E4690461F4601957E
:206420000346202203211348FFF7C2FF01281BD12B68187020682B68D4F804E0A168E2684D
:20644000C3F802002868C3F806E0C3F80A10C3F80E20089B86744361099B80F81380077722
:20646000836102B0BDE8F081002002B0BDE8F081AC100020742C0020F8B507460C4D0D4E3E
:2064800005F120043560803514F8203CA4F11E0033B114F80E2C3946D20806F099FF28B193
:2064A00034602034AC42EFD10020F8BD0120F8BD742C0020AC10002010B5094C82B0802211
:2064C00003468DE81400032120220648FFF770FF10B9206802B010BD002002B010BD00BFA3
:2064E000B0100020902B002070B4114A114E134648F2FE0502F160043260002107E09A7C66
:20650000824209D02033A3424FF001010AD21A78002AF7D0421CF2D15A88AA42F2D119B18A
:20652000336001E033600023184670BC704700BF902B0020B0100020F0B5114D83B080229E
:2065400003468DE824000446122205210D48FFF72FFF012811D12B68187020682A6867682D
:20656000A668E168C2F802002868C2F80670C2F80A60C2F80E1003B0F0BD002003B0F0BD6C
:20658000A8100020142C00202DE9F0410446254D82B080208DE821000F4690462346202282
:2065A00003212148FFF704FF012837D12B68187026682B68D4F804E0A168E268C3F80260C8
:2065C0002E68C3F806E0C3F80A10C3F80E2086F81380D7B93075154B0022FF210120022794
:2065E000B0745F70D872197019735A809A80DA801A819A72627B18465A73E289DA81FFF790
:206600009BFF286802B0BDE8F0810023337506F11800394606F03CF92E68DCE7002002B0D9
:20662000BDE8F081B0100020902B0020B410002010B5094C82B0802203468DE814000521BF
:2066400012220648FFF7B4FE10B9206802B010BD002002B010BD00BFA8100020142C0020AA
:20666000E8B138B504460E4B0025FF22022001215870D9721A735D809D80DD801D819D72C3
:206680001A70E27B18465A73228ADA81FFF7D0FF044B186000B105700023237038BD7047CD
:2066A000B4100020A810002038B5134B134C1846236003F1600504E020682030A842206014
:2066C00012D20378002BF7D0037D002BF4D1183006F0E6F80028EFD02068FFF7C1FF206830
:2066E0002030A8422060ECD300F0FCFBBDE838400348FDF7AFB800BF902B0020B0100020FD
:20670000D42C00202DE9F04F48F2FE090B884B453FD00B78FF2B3CD03E4CDFF8FCC0002398
:2067200022469A4604F16008CCF8004004E020324245CCF8002020D21478002CF7D0947C8E
:20674000012CF4D154884C45F1D04F1E561C002417F801BF16F8015F04F1080EAB4544D1C9
:206760005FFA8EF4802CF3D1A2459CBFA246134620324245CCF80020DED35BB353F8024F33
:2067800059689A68DB68046041608260C360BDE8F08F204ADFF880C048F2FE05134602F1BB
:2067A0006004CCF80020002104E02033A3424FF001010DD21A78002AF7D09A7C012AF4D1AB
:2067C0005A88AA42F1D10029D8D0CCF80030D5E7CCF800300023038043808380C380038181
:2067E00043818381C381BDE8F08F04F1080E8BEA05055FFA8EFE6E0015F0800F04F10107FB
:20680000F5B2B1D1FCB27445F5D1A2459CBFA2461346ADE7902B0020B01000200B684A682B
:206820008360037AC26083F002030372704700BF70B5094EB0684508FCF748F80446FCF722
:2068400045F82402B268A4B22044B0FBF2F302FB1300284470BD00BF782B00202DE9F041FF
:20686000344E82B000F086F800F02CF960220021314806F0B9FE3046F822002106F0B4FEBF
:206880002E4C2F492F4B4FF0400818224FF4A06520203560B4601A7086F804800870FFF7A0
:2068A000C7FF48F2FE0E42F2107240F2FF27264C002501950095F060A4F800E041462B4638
:2068C000326120462A466580A580E5803575FFF79DFD1E4A04F1080310685168012203C324
:2068E000237A294683F0020320462372FFF74CFE4FF480732046E3816580A580E5802581C4
:206900006581A5812780FFF717FE4FF40073204627806580A580E58025816581A581E38171
